{
  "contractName": "BlindAuction",
  "abi": [
    {
      "constant": true,
      "inputs": [],
      "name": "currentPhase",
      "outputs": [
        {
          "name": "",
          "type": "uint8"
        }
      ],
      "payable": false,
      "stateMutability": "view",
      "type": "function"
    },
    {
      "constant": true,
      "inputs": [],
      "name": "highestBidder",
      "outputs": [
        {
          "name": "",
          "type": "address"
        }
      ],
      "payable": false,
      "stateMutability": "view",
      "type": "function"
    },
    {
      "constant": true,
      "inputs": [],
      "name": "highestBid",
      "outputs": [
        {
          "name": "",
          "type": "uint256"
        }
      ],
      "payable": false,
      "stateMutability": "view",
      "type": "function"
    },
    {
      "inputs": [],
      "payable": false,
      "stateMutability": "nonpayable",
      "type": "constructor"
    },
    {
      "anonymous": false,
      "inputs": [
        {
          "indexed": false,
          "name": "winner",
          "type": "address"
        },
        {
          "indexed": false,
          "name": "highestBid",
          "type": "uint256"
        }
      ],
      "name": "AuctionEnded",
      "type": "event"
    },
    {
      "anonymous": false,
      "inputs": [],
      "name": "BiddingStarted",
      "type": "event"
    },
    {
      "anonymous": false,
      "inputs": [],
      "name": "RevealStarted",
      "type": "event"
    },
    {
      "anonymous": false,
      "inputs": [],
      "name": "AuctionInit",
      "type": "event"
    },
    {
      "constant": false,
      "inputs": [],
      "name": "advancePhase",
      "outputs": [],
      "payable": false,
      "stateMutability": "nonpayable",
      "type": "function"
    },
    {
      "constant": false,
      "inputs": [
        {
          "name": "blindBid",
          "type": "bytes32"
        }
      ],
      "name": "bid",
      "outputs": [],
      "payable": true,
      "stateMutability": "payable",
      "type": "function"
    },
    {
      "constant": false,
      "inputs": [
        {
          "name": "value",
          "type": "uint256"
        },
        {
          "name": "secret",
          "type": "bytes32"
        }
      ],
      "name": "reveal",
      "outputs": [],
      "payable": false,
      "stateMutability": "nonpayable",
      "type": "function"
    },
    {
      "constant": false,
      "inputs": [],
      "name": "withdraw",
      "outputs": [],
      "payable": false,
      "stateMutability": "nonpayable",
      "type": "function"
    },
    {
      "constant": false,
      "inputs": [],
      "name": "auctionEnd",
      "outputs": [],
      "payable": false,
      "stateMutability": "nonpayable",
      "type": "function"
    }
  ],
  "bytecode": "0x608060405260006002556000600560006101000a81548160ff0219169083600381111561002857fe5b021790555034801561003957600080fd5b50336000806101000a81548173ffffffffffffffffffffffffffffffffffffffff021916908373ffffffffffffffffffffffffffffffffffffffff160217905550610091610096640100000000026401000000009004565b6102ac565b6000809054906101000a900473ffffffffffffffffffffffffffffffffffffffff1673ffffffffffffffffffffffffffffffffffffffff163373ffffffffffffffffffffffffffffffffffffffff161415156100f157600080fd5b6003808111156100fd57fe5b600560009054906101000a900460ff16600381111561011857fe5b1415610147576000600560006101000a81548160ff0219169083600381111561013d57fe5b0217905550610199565b60006001600560009054906101000a900460ff16600381111561016657fe5b01905080600381111561017557fe5b600560006101000a81548160ff0219169083600381111561019257fe5b0217905550505b600260038111156101a657fe5b600560009054906101000a900460ff1660038111156101c157fe5b14156101f4577f3bcc93d35219aa0512d7c0d1ca10b0231f473e3d5f9396877d1b7215ee0ab3d560405160405180910390a15b6001600381111561020157fe5b600560009054906101000a900460ff16600381111561021c57fe5b141561024f577f02c124e22ee7da1c9905bbb317cf67658c1cc3ea1c0953b1633f85d0b5c281d960405160405180910390a15b6000600381111561025c57fe5b600560009054906101000a900460ff16600381111561027757fe5b14156102aa577f8ad2842071cb64589c8e006941bc20b615aae08a93530e211ca7c9639bd26d9760405160405180910390a15b565b610998806102bb6000396000f3fe608060405260043610610088576000357c010000000000000000000000000000000000000000000000000000000090048063055ad42e1461008d5780632a24f46c146100c65780633ccfd60b146100dd5780634036778f146100f457806391f9015714610139578063957bb1e014610190578063be25a718146101be578063d57bde79146101d5575b600080fd5b34801561009957600080fd5b506100a2610200565b604051808260038111156100b257fe5b60ff16815260200191505060405180910390f35b3480156100d257600080fd5b506100db610213565b005b3480156100e957600080fd5b506100f2610344565b005b34801561010057600080fd5b506101376004803603604081101561011757600080fd5b810190808035906020019092919080359060200190929190505050610421565b005b34801561014557600080fd5b5061014e610553565b604051808273ffffffffffffffffffffffffffffffffffffffff1673ffffffffffffffffffffffffffffffffffffffff16815260200191505060405180910390f35b6101bc600480360360208110156101a657600080fd5b8101908080359060200190929190505050610579565b005b3480156101ca57600080fd5b506101d361061d565b005b3480156101e157600080fd5b506101ea610833565b6040518082815260200191505060405180910390f35b600560009054906101000a900460ff1681565b600380600381111561022157fe5b600560009054906101000a900460ff16600381111561023c57fe5b14151561024857600080fd5b6000809054906101000a900473ffffffffffffffffffffffffffffffffffffffff1673ffffffffffffffffffffffffffffffffffffffff166108fc6002549081150290604051600060405180830381858888f193505050501580156102b1573d6000803e3d6000fd5b507fdaec4582d5d9595688c8c98545fdd1c696d41c6aeaeb636737e84ed2f5c00eda600160009054906101000a900473ffffffffffffffffffffffffffffffffffffffff16600254604051808373ffffffffffffffffffffffffffffffffffffffff1673ffffffffffffffffffffffffffffffffffffffff1681526020018281526020019250505060405180910390a150565b6000600460003373ffffffffffffffffffffffffffffffffffffffff1673ffffffffffffffffffffffffffffffffffffffff168152602001908152602001600020549050600081111561041e576000600460003373ffffffffffffffffffffffffffffffffffffffff1673ffffffffffffffffffffffffffffffffffffffff168152602001908152602001600020819055503373ffffffffffffffffffffffffffffffffffffffff166108fc829081150290604051600060405180830381858888f1935050505015801561041c573d6000803e3d6000fd5b505b50565b600280600381111561042f57fe5b600560009054906101000a900460ff16600381111561044a57fe5b14151561045657600080fd5b60008090506000600360003373ffffffffffffffffffffffffffffffffffffffff1673ffffffffffffffffffffffffffffffffffffffff168152602001908152602001600020905084846040516020018083815260200182815260200192505050604051602081830303815290604052805190602001208160000154141561050557806001015482019150848160010154101515610504576104f83386610839565b156105035784820391505b5b5b3373ffffffffffffffffffffffffffffffffffffffff166108fc839081150290604051600060405180830381858888f1935050505015801561054b573d6000803e3d6000fd5b505050505050565b600160009054906101000a900473ffffffffffffffffffffffffffffffffffffffff1681565b600180600381111561058757fe5b600560009054906101000a900460ff1660038111156105a257fe5b1415156105ae57600080fd5b604080519081016040528083815260200134815250600360003373ffffffffffffffffffffffffffffffffffffffff1673ffffffffffffffffffffffffffffffffffffffff16815260200190815260200160002060008201518160000155602082015181600101559050505050565b6000809054906101000a900473ffffffffffffffffffffffffffffffffffffffff1673ffffffffffffffffffffffffffffffffffffffff163373ffffffffffffffffffffffffffffffffffffffff1614151561067857600080fd5b60038081111561068457fe5b600560009054906101000a900460ff16600381111561069f57fe5b14156106ce576000600560006101000a81548160ff021916908360038111156106c457fe5b0217905550610720565b60006001600560009054906101000a900460ff1660038111156106ed57fe5b0190508060038111156106fc57fe5b600560006101000a81548160ff0219169083600381111561071957fe5b0217905550505b6002600381111561072d57fe5b600560009054906101000a900460ff16600381111561074857fe5b141561077b577f3bcc93d35219aa0512d7c0d1ca10b0231f473e3d5f9396877d1b7215ee0ab3d560405160405180910390a15b6001600381111561078857fe5b600560009054906101000a900460ff1660038111156107a357fe5b14156107d6577f02c124e22ee7da1c9905bbb317cf67658c1cc3ea1c0953b1633f85d0b5c281d960405160405180910390a15b600060038111156107e357fe5b600560009054906101000a900460ff1660038111156107fe57fe5b1415610831577f8ad2842071cb64589c8e006941bc20b615aae08a93530e211ca7c9639bd26d9760405160405180910390a15b565b60025481565b60006002548211151561084f5760009050610966565b600073ffffffffffffffffffffffffffffffffffffffff16600160009054906101000a900473ffffffffffffffffffffffffffffffffffffffff1673ffffffffffffffffffffffffffffffffffffffff161415156109195760025460046000600160009054906101000a900473ffffffffffffffffffffffffffffffffffffffff1673ffffffffffffffffffffffffffffffffffffffff1673ffffffffffffffffffffffffffffffffffffffff168152602001908152602001600020600082825401925050819055505b8160028190555082600160006101000a81548173ffffffffffffffffffffffffffffffffffffffff021916908373ffffffffffffffffffffffffffffffffffffffff160217905550600190505b9291505056fea165627a7a723058203c728b45ce79981b107a45eabaa92ab23568b4fc03d78528bbec9e69de8a21eb0029",
  "source": "pragma solidity 0.5.1;\r\n\r\ncontract BlindAuction {\r\n    \r\n    struct Bid {\r\n        bytes32 blindedBid;\r\n        uint deposit;\r\n    }\r\n\r\n    // Phases will be set only by external agents and not by time \"now\"\r\n    // Enum-uint mapping:\r\n    // Init - 0; Bidding - 1; Reveal - 2; Done - 3\r\n    enum Phase {Init, Bidding, Reveal, Done}  \r\n    \r\n    // Owner\r\n    address payable beneficiary;\r\n    \r\n    // Keep track of the highest bid,bidder\r\n    address public highestBidder;\r\n    uint public highestBid =0;\r\n    \r\n    // Only one bid allowed per address\r\n    mapping(address => Bid) bids;\r\n    mapping(address => uint) pendingReturns;\r\n\r\n    Phase public currentPhase = Phase.Init; \r\n\t\r\n\t// Events\r\n    event AuctionEnded(address winner, uint highestBid);\r\n    event BiddingStarted();\r\n    event RevealStarted ();\r\n    event AuctionInit();\r\n    \r\n    // Modifiers\r\n    modifier validPhase(Phase phase) { \r\n\trequire(currentPhase == phase);  \r\n\t_; \r\n\t}  \r\n    modifier onlyBeneficiary() { \r\n\trequire(msg.sender == beneficiary);  \r\n\t_; \r\n\t}\r\n    \r\n    constructor() public {\r\n        beneficiary = msg.sender;\r\n        advancePhase();\r\n    }\r\n\r\n    function advancePhase() public onlyBeneficiary {\r\n        // If already in done phase, reset to init phase\r\n        if (currentPhase == Phase.Done) {\r\n            currentPhase = Phase.Init;\r\n        } else {\r\n        // else, increment the phase\r\n        // Conversion to uint needed as enums are internally uints \r\n        uint nextPhase = uint(currentPhase) + 1;\r\n        currentPhase = Phase(nextPhase);\r\n        }\r\n        \r\n        // Emit appropriate events for the new phase\r\n        if (currentPhase == Phase.Reveal) emit RevealStarted();\r\n        if (currentPhase == Phase.Bidding) emit BiddingStarted();\r\n        if (currentPhase == Phase.Init) emit AuctionInit();\r\n    }\r\n    \r\n    function bid(bytes32 blindBid) public payable validPhase(Phase.Bidding) {\r\n        bids[msg.sender] = Bid({\r\n            blindedBid: blindBid,\r\n            deposit: msg.value\r\n        });\r\n    }\r\n    \r\n    function reveal(uint value, bytes32 secret) public validPhase(Phase.Reveal) {\r\n        uint refund = 0;\r\n        Bid storage bidToCheck = bids[msg.sender];\r\n        \r\n        if (bidToCheck.blindedBid == keccak256(abi.encodePacked(value, secret))) {\r\n            refund += bidToCheck.deposit;\r\n            if (bidToCheck.deposit >= value) {\r\n                if (placeBid(msg.sender, value))\r\n                    refund -= value;\r\n                }\r\n        }\r\n        msg.sender.transfer(refund);\r\n    }\r\n\r\n    // This is an \"internal\" function which means that it\r\n    // can only be called from the contract itself (or from\r\n    // derived contracts).\r\n    function placeBid(address bidder, uint value) internal returns (bool success) {\r\n        if (value <= highestBid) {\r\n            return false;\r\n        }\r\n        if (highestBidder != address(0)) {\r\n            // Refund the previously highest bidder.\r\n            pendingReturns[highestBidder] += highestBid;\r\n        }\r\n        \r\n        highestBid = value;\r\n        highestBidder = bidder;\r\n        return true;\r\n    }\r\n\r\n    // Withdraw a non-winning bid\r\n    function withdraw() public {\r\n        uint amount = pendingReturns[msg.sender];\r\n        if (amount > 0) {\r\n            \r\n            pendingReturns[msg.sender] = 0;\r\n            msg.sender.transfer(amount);\r\n        }\r\n    }\r\n    \r\n    // Send the highest bid to the beneficiary and\r\n    // end the auction\r\n    function auctionEnd() public validPhase(Phase.Done) {   \r\n        beneficiary.transfer(highestBid);\r\n        emit AuctionEnded(highestBidder, highestBid);\r\n    }\r\n}",
  "sourcePath": "/Users/bobbyda/blockchain/auction-dapp/auction-dapp/blindauction-contracts/contracts/BlindAuction.sol",
  "compiler": {
    "name": "solc",
    "version": "0.5.1+commit.c8a2cb62.Emscripten.clang"
  },
  "schemaVersion": "3.0.9",
  "updatedAt": "2019-05-28T01:59:33.070Z",
  "devdoc": {
    "methods": {}
  },
  "userdoc": {
    "methods": {}
  }
}