{
  "contractName": "BlindAuction",
  "abi": [
    {
      "constant": true,
      "inputs": [],
      "name": "highestBidder",
      "outputs": [
        {
          "name": "",
          "type": "address"
        }
      ],
      "payable": false,
      "stateMutability": "view",
      "type": "function",
      "signature": "0x91f90157"
    },
    {
      "constant": true,
      "inputs": [],
      "name": "state",
      "outputs": [
        {
          "name": "",
          "type": "uint8"
        }
      ],
      "payable": false,
      "stateMutability": "view",
      "type": "function",
      "signature": "0xc19d93fb"
    },
    {
      "constant": true,
      "inputs": [],
      "name": "highestBid",
      "outputs": [
        {
          "name": "",
          "type": "uint256"
        }
      ],
      "payable": false,
      "stateMutability": "view",
      "type": "function",
      "signature": "0xd57bde79"
    },
    {
      "inputs": [],
      "payable": false,
      "stateMutability": "nonpayable",
      "type": "constructor",
      "signature": "constructor"
    },
    {
      "anonymous": false,
      "inputs": [
        {
          "indexed": false,
          "name": "winner",
          "type": "address"
        },
        {
          "indexed": false,
          "name": "highestBid",
          "type": "uint256"
        }
      ],
      "name": "AuctionEnded",
      "type": "event",
      "signature": "0xdaec4582d5d9595688c8c98545fdd1c696d41c6aeaeb636737e84ed2f5c00eda"
    },
    {
      "constant": false,
      "inputs": [
        {
          "name": "x",
          "type": "uint8"
        }
      ],
      "name": "changeState",
      "outputs": [],
      "payable": false,
      "stateMutability": "nonpayable",
      "type": "function",
      "signature": "0x268f1153"
    },
    {
      "constant": false,
      "inputs": [
        {
          "name": "_blindedBid",
          "type": "bytes32"
        }
      ],
      "name": "bid",
      "outputs": [],
      "payable": true,
      "stateMutability": "payable",
      "type": "function",
      "signature": "0x957bb1e0"
    },
    {
      "constant": false,
      "inputs": [
        {
          "name": "value",
          "type": "uint256"
        },
        {
          "name": "secret",
          "type": "bytes32"
        }
      ],
      "name": "reveal",
      "outputs": [],
      "payable": false,
      "stateMutability": "nonpayable",
      "type": "function",
      "signature": "0x4036778f"
    },
    {
      "constant": false,
      "inputs": [],
      "name": "withdraw",
      "outputs": [],
      "payable": false,
      "stateMutability": "nonpayable",
      "type": "function",
      "signature": "0x3ccfd60b"
    },
    {
      "constant": false,
      "inputs": [],
      "name": "auctionEnd",
      "outputs": [],
      "payable": false,
      "stateMutability": "nonpayable",
      "type": "function",
      "signature": "0x2a24f46c"
    }
  ],
  "bytecode": "0x608060405260008060006101000a81548160ff0219169083600381111561002257fe5b0217905550600060035534801561003857600080fd5b5033600060016101000a81548173ffffffffffffffffffffffffffffffffffffffff021916908373ffffffffffffffffffffffffffffffffffffffff16021790555060016000806101000a81548160ff0219169083600381111561009857fe5b021790555061078e806100ac6000396000f3fe608060405260043610610088576000357c010000000000000000000000000000000000000000000000000000000090048063268f11531461008d5780632a24f46c146100cb5780633ccfd60b146100e25780634036778f146100f957806391f901571461013e578063957bb1e014610195578063c19d93fb146101c3578063d57bde79146101fc575b600080fd5b34801561009957600080fd5b506100c9600480360360208110156100b057600080fd5b81019080803560ff169060200190929190505050610227565b005b3480156100d757600080fd5b506100e06102d9565b005b3480156100ee57600080fd5b506100f761040a565b005b34801561010557600080fd5b5061013c6004803603604081101561011c57600080fd5b8101908080359060200190929190803590602001909291905050506104e7565b005b34801561014a57600080fd5b50610153610618565b604051808273ffffffffffffffffffffffffffffffffffffffff1673ffffffffffffffffffffffffffffffffffffffff16815260200191505060405180910390f35b6101c1600480360360208110156101ab57600080fd5b810190808035906020019092919050505061063e565b005b3480156101cf57600080fd5b506101d86106e1565b604051808260038111156101e857fe5b60ff16815260200191505060405180910390f35b34801561020857600080fd5b506102116106f3565b6040518082815260200191505060405180910390f35b600060019054906101000a900473ffffffffffffffffffffffffffffffffffffffff1673ffffffffffffffffffffffffffffffffffffffff163373ffffffffffffffffffffffffffffffffffffffff1614151561028357600080fd5b6000809054906101000a900460ff16600381111561029d57fe5b8160038111156102a957fe5b10156102b457600080fd5b806000806101000a81548160ff021916908360038111156102d157fe5b021790555050565b60038060038111156102e757fe5b6000809054906101000a900460ff16600381111561030157fe5b14151561030d57600080fd5b7fdaec4582d5d9595688c8c98545fdd1c696d41c6aeaeb636737e84ed2f5c00eda600260009054906101000a900473ffffffffffffffffffffffffffffffffffffffff16600354604051808373ffffffffffffffffffffffffffffffffffffffff1673ffffffffffffffffffffffffffffffffffffffff1681526020018281526020019250505060405180910390a1600060019054906101000a900473ffffffffffffffffffffffffffffffffffffffff1673ffffffffffffffffffffffffffffffffffffffff166108fc6003549081150290604051600060405180830381858888f19350505050158015610406573d6000803e3d6000fd5b5050565b6000600460003373ffffffffffffffffffffffffffffffffffffffff1673ffffffffffffffffffffffffffffffffffffffff16815260200190815260200160002054905060008111156104e4576000600460003373ffffffffffffffffffffffffffffffffffffffff1673ffffffffffffffffffffffffffffffffffffffff168152602001908152602001600020819055503373ffffffffffffffffffffffffffffffffffffffff166108fc829081150290604051600060405180830381858888f193505050501580156104e2573d6000803e3d6000fd5b505b50565b60028060038111156104f557fe5b6000809054906101000a900460ff16600381111561050f57fe5b14151561051b57600080fd5b60008090506000600160003373ffffffffffffffffffffffffffffffffffffffff1673ffffffffffffffffffffffffffffffffffffffff16815260200190815260200160002090508484604051602001808381526020018281526020019250505060405160208183030381529060405280519060200120816000015414156105ca578060010154820191508481600101541015156105c9576105bd33866106f9565b156105c85784820391505b5b5b3373ffffffffffffffffffffffffffffffffffffffff166108fc839081150290604051600060405180830381858888f19350505050158015610610573d6000803e3d6000fd5b505050505050565b600260009054906101000a900473ffffffffffffffffffffffffffffffffffffffff1681565b600180600381111561064c57fe5b6000809054906101000a900460ff16600381111561066657fe5b14151561067257600080fd5b604080519081016040528083815260200134815250600160003373ffffffffffffffffffffffffffffffffffffffff1673ffffffffffffffffffffffffffffffffffffffff16815260200190815260200160002060008201518160000155602082015181600101559050505050565b6000809054906101000a900460ff1681565b60035481565b60006003548211151561070f576000905061075c565b8160038190555082600260006101000a81548173ffffffffffffffffffffffffffffffffffffffff021916908373ffffffffffffffffffffffffffffffffffffffff160217905550600190505b9291505056fea165627a7a723058207dd2d30b9a567d54f944038ca5a42c0319d7b0ed6f22d258bcdb5d85aaab7b070029",
  "source": "pragma solidity 0.5.1;\r\n\r\ncontract BlindAuction {\r\n    struct Bid {\r\n        bytes32 blindedBid;\r\n        uint deposit;\r\n    }\r\n\r\n    // will be set by external agent not by time \"now\"\r\n    enum Phase {Init, Bidding, Reveal, Done}  \r\n    Phase public state = Phase.Init; \r\n    \r\n       //modifiers\r\n   modifier validPhase(Phase reqPhase) \r\n    { require(state == reqPhase); \r\n      _; \r\n    } \r\n    address payable beneficiary; //owner\r\n    mapping(address => Bid) bids;  //only one bid allowed per address\r\n\r\n    address public highestBidder;\r\n    uint public highestBid =0;\r\n    \r\n    mapping(address => uint) pendingReturns;\r\n\r\n    event AuctionEnded(address winner, uint highestBid);\r\n    constructor(\r\n        \r\n    ) public {\r\n        beneficiary = msg.sender;\r\n        state = Phase.Bidding;\r\n    }\r\n\r\n    function changeState(Phase x) public {\r\n        if (msg.sender != beneficiary) {revert();}\r\n        if (x < state ) revert();\r\n        state = x;\r\n    }\r\n    \r\n    function bid(bytes32 _blindedBid)\r\n        public\r\n        payable\r\n        validPhase(Phase.Bidding)\r\n    {\r\n        bids[msg.sender] = Bid({\r\n            blindedBid: _blindedBid,\r\n            deposit: msg.value\r\n        });\r\n    }\r\n\r\n    \r\n    function reveal(\r\n        uint value,\r\n        bytes32 secret\r\n    )\r\n        public validPhase(Phase.Reveal)\r\n        \r\n    {\r\n       \r\n        uint refund = 0;\r\n        \r\n            Bid storage bidToCheck = bids[msg.sender];\r\n            if (bidToCheck.blindedBid == keccak256(abi.encodePacked(value, secret))) {\r\n            refund += bidToCheck.deposit;\r\n            if (bidToCheck.deposit >= value) {\r\n                if (placeBid(msg.sender, value))\r\n                    refund -= value;\r\n            }}\r\n            \r\n        msg.sender.transfer(refund);\r\n    }\r\n\r\n    // This is an \"internal\" function which means that it\r\n    // can only be called from the contract itself (or from\r\n    // derived contracts).\r\n    function placeBid(address bidder, uint value) internal\r\n            returns (bool success)\r\n    {\r\n        if (value <= highestBid) {\r\n            return false;\r\n        }\r\n        \r\n        highestBid = value;\r\n        highestBidder = bidder;\r\n        return true;\r\n    }\r\n\r\n    /// Withdraw a non-winning bid\r\n    function withdraw() public {\r\n        uint amount = pendingReturns[msg.sender];\r\n        if (amount > 0) {\r\n            // It is important to set this to zero because the recipient\r\n            // can call this function again as part of the receiving call\r\n            // before `transfer` returns (see the remark above about\r\n            // conditions -> effects -> interaction).\r\n            pendingReturns[msg.sender] = 0;\r\n\r\n            msg.sender.transfer(amount);\r\n        }\r\n    }\r\n    \r\n    /// End the auction and send the highest bid\r\n    /// to the beneficiary.\r\n    function auctionEnd()\r\n        public\r\n        validPhase(Phase.Done)\r\n    {\r\n        emit AuctionEnded(highestBidder, highestBid);\r\n        beneficiary.transfer(highestBid);\r\n    }\r\n}\r\n",
  "sourcePath": "D:/auction-dapp/auction-contract/contracts/BlindAuction.sol",
  "compiler": {
    "name": "solc",
    "version": "0.5.1+commit.c8a2cb62.Emscripten.clang"
  },
  "schemaVersion": "3.0.2",
  "updatedAt": "2019-05-08T15:20:53.893Z",
  "devdoc": {
    "methods": {}
  },
  "userdoc": {
    "methods": {
      "auctionEnd()": {
        "notice": "to the beneficiary."
      },
      "withdraw()": {
        "notice": "Withdraw a non-winning bid"
      }
    }
  }
}