{
  "contractName": "BlindAuction",
  "abi": [
    {
      "constant": true,
      "inputs": [],
      "name": "highestBidder",
      "outputs": [
        {
          "name": "",
          "type": "address"
        }
      ],
      "payable": false,
      "stateMutability": "view",
      "type": "function"
    },
    {
      "constant": true,
      "inputs": [],
      "name": "state",
      "outputs": [
        {
          "name": "",
          "type": "uint8"
        }
      ],
      "payable": false,
      "stateMutability": "view",
      "type": "function"
    },
    {
      "constant": true,
      "inputs": [],
      "name": "highestBid",
      "outputs": [
        {
          "name": "",
          "type": "uint256"
        }
      ],
      "payable": false,
      "stateMutability": "view",
      "type": "function"
    },
    {
      "inputs": [],
      "payable": false,
      "stateMutability": "nonpayable",
      "type": "constructor"
    },
    {
      "anonymous": false,
      "inputs": [
        {
          "indexed": false,
          "name": "winner",
          "type": "address"
        },
        {
          "indexed": false,
          "name": "highestBid",
          "type": "uint256"
        }
      ],
      "name": "AuctionEnded",
      "type": "event"
    },
    {
      "constant": false,
      "inputs": [
        {
          "name": "x",
          "type": "uint8"
        }
      ],
      "name": "changeState",
      "outputs": [],
      "payable": false,
      "stateMutability": "nonpayable",
      "type": "function"
    },
    {
      "constant": false,
      "inputs": [
        {
          "name": "_blindedBid",
          "type": "bytes32"
        }
      ],
      "name": "bid",
      "outputs": [],
      "payable": true,
      "stateMutability": "payable",
      "type": "function"
    },
    {
      "constant": false,
      "inputs": [
        {
          "name": "value",
          "type": "uint256"
        },
        {
          "name": "secret",
          "type": "bytes32"
        }
      ],
      "name": "reveal",
      "outputs": [],
      "payable": false,
      "stateMutability": "nonpayable",
      "type": "function"
    },
    {
      "constant": false,
      "inputs": [],
      "name": "withdraw",
      "outputs": [],
      "payable": false,
      "stateMutability": "nonpayable",
      "type": "function"
    },
    {
      "constant": false,
      "inputs": [],
      "name": "auctionEnd",
      "outputs": [],
      "payable": false,
      "stateMutability": "nonpayable",
      "type": "function"
    }
  ],
  "bytecode": "0x608060405260008060006101000a81548160ff0219169083600381111561002257fe5b0217905550600060035534801561003857600080fd5b5033600060016101000a81548173ffffffffffffffffffffffffffffffffffffffff021916908373ffffffffffffffffffffffffffffffffffffffff16021790555060016000806101000a81548160ff0219169083600381111561009857fe5b021790555061078e806100ac6000396000f3fe608060405260043610610088576000357c010000000000000000000000000000000000000000000000000000000090048063268f11531461008d5780632a24f46c146100cb5780633ccfd60b146100e25780634036778f146100f957806391f901571461013e578063957bb1e014610195578063c19d93fb146101c3578063d57bde79146101fc575b600080fd5b34801561009957600080fd5b506100c9600480360360208110156100b057600080fd5b81019080803560ff169060200190929190505050610227565b005b3480156100d757600080fd5b506100e06102d9565b005b3480156100ee57600080fd5b506100f761040a565b005b34801561010557600080fd5b5061013c6004803603604081101561011c57600080fd5b8101908080359060200190929190803590602001909291905050506104e7565b005b34801561014a57600080fd5b50610153610618565b604051808273ffffffffffffffffffffffffffffffffffffffff1673ffffffffffffffffffffffffffffffffffffffff16815260200191505060405180910390f35b6101c1600480360360208110156101ab57600080fd5b810190808035906020019092919050505061063e565b005b3480156101cf57600080fd5b506101d86106e1565b604051808260038111156101e857fe5b60ff16815260200191505060405180910390f35b34801561020857600080fd5b506102116106f3565b6040518082815260200191505060405180910390f35b600060019054906101000a900473ffffffffffffffffffffffffffffffffffffffff1673ffffffffffffffffffffffffffffffffffffffff163373ffffffffffffffffffffffffffffffffffffffff1614151561028357600080fd5b6000809054906101000a900460ff16600381111561029d57fe5b8160038111156102a957fe5b10156102b457600080fd5b806000806101000a81548160ff021916908360038111156102d157fe5b021790555050565b60038060038111156102e757fe5b6000809054906101000a900460ff16600381111561030157fe5b14151561030d57600080fd5b7fdaec4582d5d9595688c8c98545fdd1c696d41c6aeaeb636737e84ed2f5c00eda600260009054906101000a900473ffffffffffffffffffffffffffffffffffffffff16600354604051808373ffffffffffffffffffffffffffffffffffffffff1673ffffffffffffffffffffffffffffffffffffffff1681526020018281526020019250505060405180910390a1600060019054906101000a900473ffffffffffffffffffffffffffffffffffffffff1673ffffffffffffffffffffffffffffffffffffffff166108fc6003549081150290604051600060405180830381858888f19350505050158015610406573d6000803e3d6000fd5b5050565b6000600460003373ffffffffffffffffffffffffffffffffffffffff1673ffffffffffffffffffffffffffffffffffffffff16815260200190815260200160002054905060008111156104e4576000600460003373ffffffffffffffffffffffffffffffffffffffff1673ffffffffffffffffffffffffffffffffffffffff168152602001908152602001600020819055503373ffffffffffffffffffffffffffffffffffffffff166108fc829081150290604051600060405180830381858888f193505050501580156104e2573d6000803e3d6000fd5b505b50565b60028060038111156104f557fe5b6000809054906101000a900460ff16600381111561050f57fe5b14151561051b57600080fd5b60008090506000600160003373ffffffffffffffffffffffffffffffffffffffff1673ffffffffffffffffffffffffffffffffffffffff16815260200190815260200160002090508484604051602001808381526020018281526020019250505060405160208183030381529060405280519060200120816000015414156105ca578060010154820191508481600101541015156105c9576105bd33866106f9565b156105c85784820391505b5b5b3373ffffffffffffffffffffffffffffffffffffffff166108fc839081150290604051600060405180830381858888f19350505050158015610610573d6000803e3d6000fd5b505050505050565b600260009054906101000a900473ffffffffffffffffffffffffffffffffffffffff1681565b600180600381111561064c57fe5b6000809054906101000a900460ff16600381111561066657fe5b14151561067257600080fd5b604080519081016040528083815260200134815250600160003373ffffffffffffffffffffffffffffffffffffffff1673ffffffffffffffffffffffffffffffffffffffff16815260200190815260200160002060008201518160000155602082015181600101559050505050565b6000809054906101000a900460ff1681565b60035481565b60006003548211151561070f576000905061075c565b8160038190555082600260006101000a81548173ffffffffffffffffffffffffffffffffffffffff021916908373ffffffffffffffffffffffffffffffffffffffff160217905550600190505b9291505056fea165627a7a723058200816148a781fd35ef925d72f4f425162aa20fba93fb13a8429513b97b62ac7230029",
  "source": "pragma solidity 0.5.1;\n\ncontract BlindAuction {\n    struct Bid {\n        bytes32 blindedBid;\n        uint deposit;\n    }\n\n    // will be set by external agent not by time \"now\"\n    enum Phase {Init, Bidding, Reveal, Done}  \n    Phase public state = Phase.Init; \n    \n       //modifiers\n   modifier validPhase(Phase reqPhase) \n    { require(state == reqPhase); \n      _; \n    } \n    address payable beneficiary; //owner\n    mapping(address => Bid) bids;  //only one bid allowed per address\n\n    address public highestBidder;\n    uint public highestBid =0;\n    \n    mapping(address => uint) pendingReturns;\n\n    event AuctionEnded(address winner, uint highestBid);\n    constructor(\n        \n    ) public {\n        beneficiary = msg.sender;\n        state = Phase.Bidding;\n    }\n\n    function changeState(Phase x) public {\n        if (msg.sender != beneficiary) {revert();}\n        if (x < state ) revert();\n        state = x;\n    }\n    \n    function bid(bytes32 _blindedBid)\n        public\n        payable\n        validPhase(Phase.Bidding)\n    {\n        bids[msg.sender] = Bid({\n            blindedBid: _blindedBid,\n            deposit: msg.value\n        });\n    }\n\n    \n    function reveal(\n        uint value,\n        bytes32 secret\n    )\n        public validPhase(Phase.Reveal)\n        \n    {\n       \n        uint refund = 0;\n        \n            Bid storage bidToCheck = bids[msg.sender];\n            if (bidToCheck.blindedBid == keccak256(abi.encodePacked(value, secret))) {\n            refund += bidToCheck.deposit;\n            if (bidToCheck.deposit >= value) {\n                if (placeBid(msg.sender, value))\n                    refund -= value;\n            }}\n            \n        msg.sender.transfer(refund);\n    }\n\n    // This is an \"internal\" function which means that it\n    // can only be called from the contract itself (or from\n    // derived contracts).\n    function placeBid(address bidder, uint value) internal\n            returns (bool success)\n    {\n        if (value <= highestBid) {\n            return false;\n        }\n        \n        highestBid = value;\n        highestBidder = bidder;\n        return true;\n    }\n\n    /// Withdraw a non-winning bid\n    function withdraw() public {\n        uint amount = pendingReturns[msg.sender];\n        if (amount > 0) {\n            // It is important to set this to zero because the recipient\n            // can call this function again as part of the receiving call\n            // before `transfer` returns (see the remark above about\n            // conditions -> effects -> interaction).\n            pendingReturns[msg.sender] = 0;\n\n            msg.sender.transfer(amount);\n        }\n    }\n    \n    /// End the auction and send the highest bid\n    /// to the beneficiary.\n    function auctionEnd()\n        public\n        validPhase(Phase.Done)\n    {\n        emit AuctionEnded(highestBidder, highestBid);\n        beneficiary.transfer(highestBid);\n    }\n}\n",
  "sourcePath": "/Users/vikramkarthikeyan/Documents/Bina/auction-dapp/auction-contract/contracts/BlindAuction.sol",
  "compiler": {
    "name": "solc",
    "version": "0.5.1+commit.c8a2cb62.Emscripten.clang"
  },
  "schemaVersion": "3.0.1",
  "updatedAt": "2019-04-25T22:18:34.746Z",
  "devdoc": {
    "methods": {}
  },
  "userdoc": {
    "methods": {
      "auctionEnd()": {
        "notice": "End the auction and send the highest bid to the beneficiary."
      },
      "withdraw()": {
        "notice": "Withdraw a non-winning bid"
      }
    }
  }
}