{
  "contractName": "BlindAuction",
  "abi": [
    {
      "constant": true,
      "inputs": [],
      "name": "currentPhase",
      "outputs": [
        {
          "name": "",
          "type": "uint8"
        }
      ],
      "payable": false,
      "stateMutability": "view",
      "type": "function"
    },
    {
      "constant": true,
      "inputs": [],
      "name": "highestBidder",
      "outputs": [
        {
          "name": "",
          "type": "address"
        }
      ],
      "payable": false,
      "stateMutability": "view",
      "type": "function"
    },
    {
      "constant": true,
      "inputs": [],
      "name": "highestBid",
      "outputs": [
        {
          "name": "",
          "type": "uint256"
        }
      ],
      "payable": false,
      "stateMutability": "view",
      "type": "function"
    },
    {
      "inputs": [],
      "payable": false,
      "stateMutability": "nonpayable",
      "type": "constructor"
    },
    {
      "anonymous": false,
      "inputs": [
        {
          "indexed": false,
          "name": "winner",
          "type": "address"
        },
        {
          "indexed": false,
          "name": "highestBid",
          "type": "uint256"
        }
      ],
      "name": "AuctionEnded",
      "type": "event"
    },
    {
      "anonymous": false,
      "inputs": [],
      "name": "BiddingStarted",
      "type": "event"
    },
    {
      "anonymous": false,
      "inputs": [],
      "name": "RevealStarted",
      "type": "event"
    },
    {
      "anonymous": false,
      "inputs": [],
      "name": "AuctionInit",
      "type": "event"
    },
    {
      "constant": false,
      "inputs": [],
      "name": "goToNextPhase",
      "outputs": [],
      "payable": false,
      "stateMutability": "nonpayable",
      "type": "function"
    },
    {
      "constant": false,
      "inputs": [
        {
          "name": "blindBid",
          "type": "bytes32"
        }
      ],
      "name": "bid",
      "outputs": [],
      "payable": true,
      "stateMutability": "payable",
      "type": "function"
    },
    {
      "constant": false,
      "inputs": [
        {
          "name": "value",
          "type": "uint256"
        },
        {
          "name": "secret",
          "type": "bytes32"
        }
      ],
      "name": "reveal",
      "outputs": [],
      "payable": false,
      "stateMutability": "nonpayable",
      "type": "function"
    },
    {
      "constant": false,
      "inputs": [],
      "name": "withdraw",
      "outputs": [],
      "payable": false,
      "stateMutability": "nonpayable",
      "type": "function"
    },
    {
      "constant": false,
      "inputs": [],
      "name": "auctionEnd",
      "outputs": [],
      "payable": false,
      "stateMutability": "nonpayable",
      "type": "function"
    }
  ],
  "bytecode": "0x608060405260006002556000600560006101000a81548160ff0219169083600381111561002857fe5b021790555034801561003957600080fd5b50336000806101000a81548173ffffffffffffffffffffffffffffffffffffffff021916908373ffffffffffffffffffffffffffffffffffffffff1602179055507f8ad2842071cb64589c8e006941bc20b615aae08a93530e211ca7c9639bd26d9760405160405180910390a1610998806100b56000396000f3fe608060405260043610610088576000357c010000000000000000000000000000000000000000000000000000000090048063055ad42e1461008d5780632a24f46c146100c65780633ccfd60b146100dd5780634036778f146100f457806371ac6e8c1461013957806391f9015714610150578063957bb1e0146101a7578063d57bde79146101d5575b600080fd5b34801561009957600080fd5b506100a2610200565b604051808260038111156100b257fe5b60ff16815260200191505060405180910390f35b3480156100d257600080fd5b506100db610213565b005b3480156100e957600080fd5b506100f2610344565b005b34801561010057600080fd5b506101376004803603604081101561011757600080fd5b810190808035906020019092919080359060200190929190505050610421565b005b34801561014557600080fd5b5061014e610553565b005b34801561015c57600080fd5b50610165610769565b604051808273ffffffffffffffffffffffffffffffffffffffff1673ffffffffffffffffffffffffffffffffffffffff16815260200191505060405180910390f35b6101d3600480360360208110156101bd57600080fd5b810190808035906020019092919050505061078f565b005b3480156101e157600080fd5b506101ea610833565b6040518082815260200191505060405180910390f35b600560009054906101000a900460ff1681565b600380600381111561022157fe5b600560009054906101000a900460ff16600381111561023c57fe5b14151561024857600080fd5b6000809054906101000a900473ffffffffffffffffffffffffffffffffffffffff1673ffffffffffffffffffffffffffffffffffffffff166108fc6002549081150290604051600060405180830381858888f193505050501580156102b1573d6000803e3d6000fd5b507fdaec4582d5d9595688c8c98545fdd1c696d41c6aeaeb636737e84ed2f5c00eda600160009054906101000a900473ffffffffffffffffffffffffffffffffffffffff16600254604051808373ffffffffffffffffffffffffffffffffffffffff1673ffffffffffffffffffffffffffffffffffffffff1681526020018281526020019250505060405180910390a150565b6000600460003373ffffffffffffffffffffffffffffffffffffffff1673ffffffffffffffffffffffffffffffffffffffff168152602001908152602001600020549050600081111561041e576000600460003373ffffffffffffffffffffffffffffffffffffffff1673ffffffffffffffffffffffffffffffffffffffff168152602001908152602001600020819055503373ffffffffffffffffffffffffffffffffffffffff166108fc829081150290604051600060405180830381858888f1935050505015801561041c573d6000803e3d6000fd5b505b50565b600280600381111561042f57fe5b600560009054906101000a900460ff16600381111561044a57fe5b14151561045657600080fd5b60008090506000600360003373ffffffffffffffffffffffffffffffffffffffff1673ffffffffffffffffffffffffffffffffffffffff168152602001908152602001600020905084846040516020018083815260200182815260200192505050604051602081830303815290604052805190602001208160000154141561050557806001015482019150848160010154101515610504576104f83386610839565b156105035784820391505b5b5b3373ffffffffffffffffffffffffffffffffffffffff166108fc839081150290604051600060405180830381858888f1935050505015801561054b573d6000803e3d6000fd5b505050505050565b6000809054906101000a900473ffffffffffffffffffffffffffffffffffffffff1673ffffffffffffffffffffffffffffffffffffffff163373ffffffffffffffffffffffffffffffffffffffff161415156105ae57600080fd5b6003808111156105ba57fe5b600560009054906101000a900460ff1660038111156105d557fe5b1415610604576000600560006101000a81548160ff021916908360038111156105fa57fe5b0217905550610656565b60006001600560009054906101000a900460ff16600381111561062357fe5b01905080600381111561063257fe5b600560006101000a81548160ff0219169083600381111561064f57fe5b0217905550505b6002600381111561066357fe5b600560009054906101000a900460ff16600381111561067e57fe5b14156106b1577f3bcc93d35219aa0512d7c0d1ca10b0231f473e3d5f9396877d1b7215ee0ab3d560405160405180910390a15b600160038111156106be57fe5b600560009054906101000a900460ff1660038111156106d957fe5b141561070c577f02c124e22ee7da1c9905bbb317cf67658c1cc3ea1c0953b1633f85d0b5c281d960405160405180910390a15b6000600381111561071957fe5b600560009054906101000a900460ff16600381111561073457fe5b1415610767577f8ad2842071cb64589c8e006941bc20b615aae08a93530e211ca7c9639bd26d9760405160405180910390a15b565b600160009054906101000a900473ffffffffffffffffffffffffffffffffffffffff1681565b600180600381111561079d57fe5b600560009054906101000a900460ff1660038111156107b857fe5b1415156107c457600080fd5b604080519081016040528083815260200134815250600360003373ffffffffffffffffffffffffffffffffffffffff1673ffffffffffffffffffffffffffffffffffffffff16815260200190815260200160002060008201518160000155602082015181600101559050505050565b60025481565b60006002548211151561084f5760009050610966565b600073ffffffffffffffffffffffffffffffffffffffff16600160009054906101000a900473ffffffffffffffffffffffffffffffffffffffff1673ffffffffffffffffffffffffffffffffffffffff161415156109195760025460046000600160009054906101000a900473ffffffffffffffffffffffffffffffffffffffff1673ffffffffffffffffffffffffffffffffffffffff1673ffffffffffffffffffffffffffffffffffffffff168152602001908152602001600020600082825401925050819055505b8160028190555082600160006101000a81548173ffffffffffffffffffffffffffffffffffffffff021916908373ffffffffffffffffffffffffffffffffffffffff160217905550600190505b9291505056fea165627a7a7230582054a89eef6ac442ec3f4ab54f5ab784706c4bdf748a19119813d05956989658030029",
  "source": "pragma solidity 0.5.1;\n\ncontract BlindAuction {\n    \n    struct Bid {\n        bytes32 blindedBid;\n        uint deposit;\n    }\n\n    // Phases will be set only by external agents and not by time \"now\"\n    // Enum-uint mapping:\n    // Init - 0\n    // Bidding - 1\n    // Reveal - 2\n    // Done - 3\n    enum Phase {Init, Bidding, Reveal, Done}\n\n    // Owner\n    address payable beneficiary;\n\n    // Keep track of the highest bid,bidder\n    address public highestBidder;\n    uint public highestBid =0;\n\n    // Only one bid allowed per address\n    mapping(address => Bid) bids;\n    mapping(address => uint) pendingReturns;\n\n    Phase public currentPhase = Phase.Init;\n\n    // Modifiers\n    modifier validPhase(Phase phase) { require(currentPhase == phase); _; }\n    modifier isBeneficiary() { require(msg.sender == beneficiary); _; }\n\n    // Events\n    event AuctionEnded(address winner, uint highestBid);\n    event BiddingStarted();\n    event RevealStarted();\n    event AuctionInit();\n\n    constructor() public {\n        beneficiary = msg.sender;\n        emit AuctionInit();\n    }\n\n    function goToNextPhase() public isBeneficiary {\n        // If already in done phase, reset to bidding phase\n        if (currentPhase == Phase.Done) {\n            currentPhase = Phase.Init;\n        } else {\n        // Else, increment the phase\n        // Conversion to uint needed as enums are internally uints\n        uint nextPhase = uint(currentPhase) + 1;\n        currentPhase = Phase(nextPhase);\n        }\n\n        // Emit appropriate events for the new phase\n        if (currentPhase == Phase.Reveal) emit RevealStarted();\n        if (currentPhase == Phase.Bidding) emit BiddingStarted();\n        if (currentPhase == Phase.Init) emit AuctionInit();\n    }\n\n    function bid(bytes32 blindBid) public payable validPhase(Phase.Bidding) {\n        bids[msg.sender] = Bid({\n            blindedBid: blindBid,\n            deposit: msg.value\n        });\n    }\n\n    function reveal(uint value, bytes32 secret) public validPhase(Phase.Reveal) {\n        uint refund = 0;\n        Bid storage bidToCheck = bids[msg.sender];\n\n        if (bidToCheck.blindedBid == keccak256(abi.encodePacked(value, secret))) {\n            refund += bidToCheck.deposit;\n            if (bidToCheck.deposit >= value) {\n                if (placeBid(msg.sender, value))\n                    refund -= value;\n                }\n        }\n        msg.sender.transfer(refund);\n    }\n\n    // This is an \"internal\" function which means that it\n    // can only be called from the contract itself (or from\n    // derived contracts).\n    function placeBid(address bidder, uint value) internal returns (bool success) {\n        if (value <= highestBid) {\n            return false;\n        }\n        if (highestBidder != address(0)) {\n            // Refund the previously highest bidder.\n            pendingReturns[highestBidder] += highestBid;\n        }\n\n        highestBid = value;\n        highestBidder = bidder;\n        return true;\n    }\n\n    // Withdraw a non-winning bid\n    function withdraw() public {\n        uint amount = pendingReturns[msg.sender];\n        if (amount > 0) {\n            \n            pendingReturns[msg.sender] = 0;\n            msg.sender.transfer(amount);\n        }\n    }\n\n    // Send the highest bid to the beneficiary and\n    // end the auction\n    function auctionEnd() public validPhase(Phase.Done) {\n        beneficiary.transfer(highestBid);\n        emit AuctionEnded(highestBidder, highestBid);\n    }\n}",
  "sourcePath": "/Users/bobbyda/auction-dapp/auction-dapp/auction-contract/contracts/BlindAuction.sol",
  "compiler": {
    "name": "solc",
    "version": "0.5.1+commit.c8a2cb62.Emscripten.clang"
  },
  "schemaVersion": "3.0.9",
  "updatedAt": "2019-05-18T21:30:54.423Z",
  "devdoc": {
    "methods": {}
  },
  "userdoc": {
    "methods": {}
  }
}